:100000000A128A11362F00308A000408840A8207F7
:10001000003441344E344F344B3448344134553439
:1000200054344F344D344134543449344F344E34C5
:100030000034533455344234533443345234493405
:0600400042344534003497
:100E6C0083010A128A11702F28300A128A119E27C8
:100E7C000A128A110C300A128A119E270A128A1140
:100E8C0006300A128A119E270A128A1101300A12A0
:100E9C008A119E270A128A110800F500F601682FA4
:100EAC007608750784000A128A1103200A128A1127
:100EBC000A128A11CF270A128A110130F400740821
:100ECC00F607682F73087602031C6D2F6E2F562FB2
:100EDC006F2F08008316031386010A128A113A2712
:100EEC000A128A11792F83300A128A119E270A124C
:100EFC008A110930F7007708F30011300A128A11B1
:100F0C0053270A128A11C0300A128A119E270A121C
:100F1C008A110F30F7007708F30001300A128A119A
:100F2C0053270A128A11792F792F0A128A11002855
:100F3C00F2007208F039831203138600061586102E
:100F4C0006100D30F100FB30F000F00BAB2FF10B65
:100F5C00AB2FB02F8312031306117208F00003306D
:100F6C000310F00DFF3E031DB62F0310700DF0396A
:100F7C0086000615861006100D30F100FB30F000CF
:100F8C00F00BC62FF10BC62FCB2F831203130611B8
:100F9C000800F2007208F03983120313860006155C
:100FAC00861006140D30F100FB30F000F00BDC2F36
:100FBC00F10BDC2FE12F8312031306117208F000E2
:100FCC0003300310F00DFF3E031DE72F0310700DCF
:100FDC00F03986000615861006140D30F100FB3032
:100FEC00F000F00BF72FF10BF72FFC2F83120313EC
:040FFC0006110800D2
:02400E00BAFFF7
:00000001FF
